:020000002928AD
:0E0006008312031329088A00280882000800CC
:1000140003208A110A128000840AA80A0319A90A73
:08002400F003031D0A28080087
:10002C00043083120313F1002E08F0007108031939
:10003C002328F00D7010FF3E1D2870082C07860039
:06004C002A0885000800EF
:1000520083120313A001A101A201A301A401A5011E
:10006200A601A70183168E158601603085008312D2
:1000720086012608AA002708AB002008AC00210848
:10008200AD002208AE002308AF001620851E5F28AF
:10009200240825040130031D0030A400A50000300F
:1000A200A5000230FB000430FC00BA30FD00FD0B5D
:1000B2005828FC0B5828FB0B58280000240825045C
:1000C20003196F28A60A0319A70A1A30FC00F83090
:1000D200FD00FD0B6A28FC0B6A2800000030270691
:1000E200031D75280A302606031D7C28A601A701D8
:1000F200A00A0319A10A00302106031D82280A3032
:100102002006031D8928A001A101A20A0319A30A3E
:1001120000302306031D8F280A302206031D97286C
:10012200A601A701A001A101A201A301051FAC28FC
:10013200A601A701A001A101A201A3010230FB00B7
:100142000430FC00BA30FD00FD0BA528FC0BA528ED
:0A015200FB0BA52800003A28AD2899
:02400E00592136
:00000001FF
